:1000000041C0FECFFDCFFCCFFBCFFACFF9CFF8CF69
:10001000F7CFF6CFF5CFF4CFF3CFF2CFF1CFF0CFCC
:10002000EFCFA7C2EDCF1027E80364000A0001005C
:10003000001000011000010000004E686965742086
:10004000646F3A2000446F20616D3A200000010087
:100050002D4E414E00494E46000080C00700010071
:10006000020038000B0060013A0008006B014500F7
:1000700001009F014E000200A3015A00010075011A
:100080005C000000F894EE27ECBBF1E0FBBFEBBF97
:10009000E5BF8DE0A2E0BB27ED938A95E9F780E00C
:1000A00094E0A0E6ED930197E9F7EEE5F0E08591A5
:1000B0009591009761F0A591B59105901590BF01BC
:1000C000F00105900D920197E1F7FB01F0CFEFE50C
:1000D000EDBFE4E0EEBFC0E6D1E070C0AFD600E017
:1000E00010E0F6D3E1E0FBD3E3E0E0937601E0E05B
:1000F000E0937701E4E0E0937801EAD3E3E0EFD323
:10010000AAE0F4D3ECE5EA93EAE7F1E0F1D3F3D324
:10011000EBE7F1E0EDD3A8E0C6D1A0917B01A330DD
:1001200011F0E0E048C0A0917C01A43011F0E0E0C3
:1001300042C0E0917D01A9E9B1E0E0D3E5D3EDD380
:10014000F2D3E0917E01F0E0DFD3F6D3ECD3DCD341
:10015000F7D3E9D3E0917F01EF77A5E9B1E0CED302
:10016000F5D3DBD3FCD3E0918001F0E0EFD3E4D30F
:10017000F6D3ECD3E5D3F3D3BED3A0E008D1A0E609
:10018000B1E033D1E0919501F09196016091970132
:1001900070919801EDD3AFD3A1E0F9D0ABE6B1E017
:1001A00024D1E0919901F0919A0160919B017091A5
:1001B0009C01DED3E1E0099119910895E0E0E7BBED
:1001C000E8BBE4BBE5BBE1BBE2BBE3BFE2BFEFBD25
:1001D000EEBDEDBDECBDE7BDE6BDEBBDEABDE9BDE5
:1001E000E8BDE2BDE5BDE4BDE3BDE9BFE5BFEAB9F9
:1001F000E0E8E8B9E0E0E0BFE6B9EDB9A4E6B0E0D8
:100200002BD1A0E100D1789469DFE13039F4ADE978
:10021000B1E0ED91FD913196FE93EE93E0E1EA932A
:10022000A1E0B5D0A0919D01A05DCCD0A8EEB3E037
:10023000F8D3EACFFFCFA5D32497E0E0E883E983A2
:10024000EA83EFE3EB83FAD5EB85FC85EF3FAFEF75
:10025000FA0729F499D3A0E5B0E0EED27AC0EF3FD7
:10026000AFE7FA0729F490D3A1E5B0E0E5D271C079
:10027000AC85AA2332F48BD3DED38ED392D3EDE2B6
:10028000EC93A885A73010F0E6E0E8871885E12F09
:100290001150E03021F08CD390D395D3F8CF98D380
:1002A00070D47AD310E0E0E0F0E060E87FE38BD335
:1002B0008FD34AD560F07CD394D385D31F5F173298
:1002C00028F062D3A5E5B0E0B7D243C0F1CF10303B
:1002D00021F467D3E0E3EC931EC0E12F1150E0302E
:1002E000D1F066D36AD3A0E0B0E080E09FE349D4C8
:1002F000DF01CB01DDD267D36BD3E1D4CFD30E2F97
:1003000050D375D355D34ED502D48BD476D385D55F
:1003100031D442D3E2CFE885E030B9F042D3EEE207
:10032000EC93E885E150E887EF5F79F066D359D325
:1003300033D32DD3B3D30E2F34D359D35ED332D589
:10034000E6D36BD517D428D3ECCFAE81BF81E0E0E4
:10035000EC937BD52D960895AA93E8B3E07FAE2F5A
:10036000E881E295EF70EA2BE8BB4CD3979A4AD329
:10037000979848D36FC0AA93A881EEDFE881E295F1
:10038000E883A881E9DF85E88A95F1F763C0AA933D
:10039000E881F0E0ED55FE4FE081A981AE0FEBDF83
:1003A0005980488022960895A2E0E5DFA3E09ED21E
:1003B000ACE0E1DFA1E0DFDFA3E098D2E0E04E2E89
:1003C0005E2E0895AA93A881AA3011F0571438F030
:1003D00092D24394A42DDBDFA881AA30D9F15394A3
:1003E000959AA881C8DF959835C0CBD21A93A98178
:1003F000BA81ED91A983BA831E2FE03019F0A12FA5
:10040000E1DFF5CF4DC0AA93E7B3EF60E7BB8F9A6A
:100410008D9A8E9A9798959896987880E881E0586A
:10042000E093A501E881E054E093A601A4E15ED247
:10043000EDD2ECD2EBD2A0E28FDF88EC90E0019716
:10044000F1F7A8E298DFA4E096DFA5E894DFA6E044
:1004500092DFAADF2196089594D21A93689421F826
:10046000E7E0E0937501E0E0E093AF01E093B001D5
:10047000E093B101E093B201AC9AAD9AE6BFE1B16D
:10048000EC7FE1B9E981FA81A0EABFE095D41E2FA3
:10049000183008F0185010B9E6B7E078E564E6BF08
:1004A000188123960895AA93249721FE5FC0EA85B8
:1004B000EE0FE093A701E885F985E093A801F0939A
:1004C000A901E0E0E0937301EF81E093AA01ED81DF
:1004D000FE81E093AB01F093AC01E0E0E0937401A6
:1004E000EC81E093AD01E6E0E09375017894EF8153
:1004F000E03079F0E885F9853097C1F1EC81E030A2
:1005000021F0AD81BE81109709F001C02FC0689421
:100510000DC0EC81E03029F1ED81FE81309731F1A1
:10052000E091A701E160E093A701E89420F8E89446
:1005300021F8E6B7EF70E06AE6BFE0E2F1EA67E0D3
:1005400070E06BD221FC0DC06AD2319760407040E0
:1005500064D231F4E5E0E0937501689421F806C0B7
:10056000F1CFA0917501E0E022D401C0E0E02B962C
:1005700008950A921A92FA926A937A938A939A93B6
:10058000AA93BA93EA93FA93EFB7EA9353D41091EC
:100590007401009173013091AA0120917501E12F3E
:1005A000A091AB01B091AC01F0E0EA0FFB1FAF01ED
:1005B000E1B1E87FE83011F420E002C0E03119F445
:1005C000E091A70110C0E83111F0E83221F50317DE
:1005D00080F4E02F0F5FA091A801B091A901F0E095
:1005E000AE0FBF1FEC91E3B9E6B7EF70E068E6BF6E
:1005F00011C0E091AD011E1760F4E091A701E16028
:10060000E093A701E89420F8E6B7EF70E06AE6BF50
:10061000FBC033C0F9C0E03529F4E3B1DA01EC9353
:100620001F5F02C0E03471F4E091AD01E1501E178C
:1006300020F0E6B7EF70E06803C0E6B7EF70E06C5B
:10064000E6BFE2C0E83529F4E3B1DA01EC931F5FBD
:1006500002C0E03209F402C0E03309F402C0E83419
:1006600069F4203051F420FE03C0031728F005C0C0
:10067000E091AD011E1708F424E0C0C0E83329F46E
:1006800022E0E6B7EF70E068BCC0E83611F0E8376A
:1006900011F422E005C0E03611F0E03791F420E0DB
:1006A00010E0E89420F8E091AE01E03029F421E078
:1006B000E6B7EF70E06803C0E6B7EF70E06CE6BF46
:1006C000A3C0E03811F0E03929F520FE02C021E096
:1006D00095C0E3B1DA01EC931F5FE091AE011E1704
:1006E000B0F4E091AF01F091B001309711F426E041
:1006F00085C0A0E0E091AF01F091B0010995E03034
:1007000029F0E6B7EF70E06CE6BF7EC002C06894E7
:1007100020F802C0E83809F402C0E83929F4E6B745
:10072000EF70E068E6BF70C0E03AA9F4E6B7EF709A
:10073000E06CE6BF689421F8E091AF01F091B00160
:10074000309739F0A1E0E091AF01F091B001099547
:1007500001C026E059C0E03B11F422E002C0E83AB3
:10076000B9F4E091B101F091B201309759F0A0E0F5
:10077000E091B101F091B20109953E2FE03011F006
:1007800020E002C026E03AC000E0E89420F802C071
:10079000E83BE1F420FE02C021E030C0E02F0F5F13
:1007A000A091A801B091A901F0E0AE0FBF1FEC919C
:1007B000E3B9031720F4E6B7EF70E06C05C0689466
:1007C00020F8E6B7EF70E068E6BF1EC0E03C11F02D
:1007D000E83C89F4E6B7EF70E06CE6BFE091B10168
:1007E000F091B201309731F0A1E0E091B101F091C8
:1007F000B201099507C0E03039F423E0E6B7EF70A5
:10080000E06DE6BF689421F81093740100937301C2
:10081000209375013093AA0114D32696E991EFBF76
:10082000F991E991B991A9919991899179916991F8
:10083000F990199009901895A4D0E991F991A9918E
:10084000B991CD0105900D920020E1F7FC010895CA
:10085000DFD27B816A81F981E88177FB770F67FDC1
:100860007160972F9E5781F078F0983190F4AA2705
:10087000BB27882708948795B795A7959A95D1F7B0
:10088000EA23FB23682305C0E8947727EE27FF2798
:1008900066276F77769508F4606877F9A991B99122
:1008A00089919991EA17FB076807790797FB0895E3
:1008B000AFD29FD2CDDFB1D011F4B1D007C0EEF7E7
:1008C000AED0A0E0B0E080E89FE354D12496089534
:1008D000ECE5EA93E6E7F1E0FA93EA930895EA9308
:1008E000E0E0F0E0FA93EA93A0E0DDCDB0E099C05B
:1008F000FA93EA930895E0E0EA930895FF276627C4
:10090000772705D16CD20895A0919901B0919A01F1
:1009100080919B0190919C010895E0E0F0E060E8F7
:1009200073E47FD10895E0939901F0939A01609365
:100930009B0170939C01089535D2E9D022D108958E
:10094000E0E0F0E060E271E4BAD10895A091950191
:10095000B091960180919701909198010895E0934C
:100960009501F09396016093970170939801089513
:100970004AD2E1E0EA93A5E8B1E05DDCA5E8B1E0A8
:1009800034CDBA93AA930895EE81FF81B1CFE98562
:10099000FA856B857C850895E987FA876B877C8764
:1009A0000895AE81BF811196AE83BF8311970895DC
:1009B000AA81BB818C819D810895EDECFCEC6CECEF
:1009C0007DE32FD10895EA83FB836C837D830895B3
:1009D000EA81FB816C817D81A985BA858B859C85A7
:1009E0000895E0E0F0E060E271E41BD10895E02FAB
:1009F000E05DEC93E02FF0E00895A985BA858B8542
:100A00009C8508958DE08A95F1F70895A0E3A4DC14
:100A100088EC90E00197F1F70895F0D10895E4D1C2
:100A20000895109639F080ED97E00197F1F7A895B9
:100A30001197C9F7089530976040704009F07058D9
:100A40000895552342F4503811F4E0FF04C0319664
:100A5000691F791F6BF050E8572711F45F93CFC0DF
:100A60005F3F31F0660F000C57956795752F08951D
:100A70005F9300200AF0CFC0C8C050E8192E15229D
:100A8000880F991F9527550F879550E8072E052247
:100A9000660F771F7527550F67950895689401C0F5
:100AA000E8945F93F2DF703818F07F3F08F4A7C036
:100AB00056E1571BAAF4519558300EF4593030F0D6
:100AC000EFEFFFEF6FEF7FE777F91AC07727552336
:100AD000B9F0EE0FFF1F661F771F5A95D1F710C0B0
:100AE0007727583028F0EF2FF62F672F5850F9CF7F
:100AF000552331F076956795F795E7955A95D1F797
:100B000000200AF441D15F910895689401C0E894EF
:100B1000309760407040B1F0002426F0772312F443
:100B2000009432D1172E7EE1112032F07A95EE0F2B
:100B3000FF1F661F111CF9CFEF2FF62F612D5F935A
:100B40008ADF5F9108954F93AF01FD01DA01AB0198
:100B5000BC01CA01402D012C142E4F910895EA0FBB
:100B6000FB1F681F0895E095F0956095EF5FFF4FBC
:100B70006F4F08955F9381DF903871F150E815262B
:100B800004C05F937ADF903839F1703821F1572F24
:100B9000591B2BF112F4D7DFFACF583118F0AA27DE
:100BA000BB278827583028F0AB2FB82F88275850FC
:100BB000F9CF552329F08695B795A7955A95D9F77A
:100BC000502D512572F0CBDF38F46795F795E795F6
:100BD000739513F420C0B7DF3EDF5F910895D8F717
:100BE000FBCFEA1BFB0B680B51F010F40094BBDF4A
:100BF000662392F3EE0FFF1F661F7A95CBF7EE2761
:100C0000FF27662777275F910895EFEFFFEF6FE7E4
:100C10007FEF5F910895EFEFFFEF6FE77FE75F9161
:100C200008955F932ADF703851F3903841F301241F
:100C30000894791F23F41CF300203AF3ECCF0F92B1
:100C40001F932F933F934F93112722279927689F34
:100C5000A0018F9F302D410D591F6B9F300D411DFD
:100C6000591F8E9F27D0BF9F25D06A9F23D0BE9F3C
:100C70001DD0AF9F1BD0AE9F110D291F391F491FDB
:100C8000591FE32FF42F652F522F4F913F912F9132
:100C90001F910F9066232AF0550FEE1FFF1F661F4E
:100CA00002C073954BF2CDDE5F910895100D211DAA
:100CB000391F02C0200D311D491F591F08955F9330
:100CC000DCDE703821F411200AF49FCFA4CF9038D5
:100CD00009F495CF01240894970B1BF4D4F300205A
:100CE000F3CF792F1F932F933F934F931124112705
:100CF000222733274427552790E2AE17BF078607E0
:100D0000410730F0AE1BBF0B860B410B089401C0AE
:100D10008894551F221F331F111CAA1FBB1F881F39
:100D2000441F9A9551F7F901612D4F913F912F91F1
:100D30001F91662332F0550FEE1FFF1F661F7A9535
:100D400043F27FDE5F91089599239AF0772342F072
:100D5000971748F029F4AE17BF07860720F031F047
:100D60009894889408959894089408951894889471
:100D700008957723C2F7971798F3A9F7EA17FB07A7
:100D8000680788F399F3ECCFF09560957095E1953D
:100D9000FF4F6F4F7F4F0895FE2FFF0FFF0B6F2FF9
:100DA0007F2F08956F2F660F660B762F0895EA1731
:100DB000E1E009F0EE2708950024112490E1AA0F44
:100DC000BB1F001C111C0E1A1F0A18F40E0E1F1E4A
:100DD00001C0A1609A9599F7FD01D0010895ED93A6
:100DE000FD936D937C930895E881F9816A817B81FD
:100DF0000895A881B9818A819B810895E883F98348
:100E00006A837B8308957A936A93FA93EA930895A9
:100E10009A938A93BA93AA930895182E862F612DD8
:100E2000192E972F712D1B2EBF2FF12D1A2EAE2F9D
:100E3000E12D08955A934A933A932A931A930A9369
:100E400008955D814C813B812A8119810881089533
:00000001FF
